:020000040800F2
:1000000000000110FD4E0008054400089D4F000847
:100010009D4F00089D4F00089D4F00080000000004
:100020000000000000000000000000008D460008F5
:10003000914600080000000095460008A14E000807
:100040009D4F00089D4F00089D4F00089D4F0008E0
:100050009D4F00089D4F00089D4F00089D4F0008D0
:100060009D4F00089D4F00089D4F0008594500080E
:100070006D4500088145000895450008A945000820
:10008000BD450008D14500089D4F00089D4F000860
:100090009D4F00089D4F00089D4F00089D4F000890
:1000A0005D4400087D4400089D4400085144000858
:1000B000BD440008C9440008D54400089D4F00080D
:1000C0009D4F00089D4F00089D4F00089D4F000860
:1000D0009D4F000809440008154400082144000809
:1000E0009D4F00089D4F000899460008F9440008FC
:1000F0001945000839450008ED440008E5450008A9
:100100009D4F00089D4F0008E14400089D4F0008E6
:100110002D440008394400089D4F00089D4F0008F9
:10012000F94500080D46000821460008354600083C
:10013000494600089D4F00089D4F00089D4F00084C
:100140009D4F00089D4F00089D4F0008ED46000898
:100150005D4600086D4600087D46000845440008DD
:100160009D4F00089D4F00089D4F00089D4F0008BF
:100170009D4F00089D4F00089D4F00089D4F0008AF
:100180009D4F00089D4F0008436B99891A88890686
:1001900010B504460AD592B2900607D5E26A002A45
:1001A00029D09888216B80B29047636B99891A880F
:1001B000090692B20FD510060DD5D4E909128A426C
:1001C00014D0A1692069895C99800132B2FBF0F1F9
:1001D00000FB1122A262998A1A88C90592B204D53D
:1001E000D20744BF4FF6F7721A8010BDDA6822F0CA
:1001F0008002DA60EFE79B88E2696169DBB28B54C9
:10020000E269E168636B0132B2FBF1F001FB10229D
:10021000E261CBE782B00922274B8DF80720DA682C
:10022000D00319D4DA68D10640D4DA68D20541D4B3
:10023000DA6812F0E00F3BD1DB6813F0020F14BF55
:10024000082309238DF807309DF80730012B0AD0C9
:100250009DF8070002B0704701238DF807309DF824
:100260000730012BF4D1144A12E0D368DB0519D40E
:10027000D36813F0E00F17D1D36813F0020F14BF47
:10028000082309238DF807309DF80730012BDFD1B3
:10029000D168C8034FF00103F4D4D368D906E4D57C
:1002A0000623EFE70223EDE70723EBE70623D4E776
:1002B0000723D2E70223D0E7003C024070B5054691
:1002C0000C46FFF7A7FF092800D070BD0A4E33691E
:1002D00023F440733361336943F40073336133694A
:1002E00043F0010333612C60FFF794FF336923F07F
:1002F0000103336170BD00BF003C024000222DE9C4
:10030000F04713460D684FF0010E032604E0013359
:10031000102B02F1020239D00EFA03FC3CEA05046C
:10032000F5D1076806FA02F427EA040707600F7997
:10033000D0F800A007FA02F9013F49EA0A09012FA3
:10034000A046C0F800906FEA040411D887683C40CA
:1003500084604C79876894403C438460446824EA14
:100360000C0444608C7947689C40A4B23C434460D0
:10037000C46824EA0804C460CC79C7689440013397
:100380003C43102BC46002F10202C5D1BDE8F087E6
:100390001F4A936803F00C03042B10B41BD0082BE6
:1003A0001CD01C4B03601A4A1B499468C4F3031405
:1003B0000C5DE34043609468C4F382240C5D23FA2F
:1003C00004F4846092685DF8044BC2F342328A5CA4
:1003D000D340C3607047114B0360E4E75368516832
:1003E00013F4800F01F03F01536814BF0B4A094A10
:1003F000B2FBF1F1064A5268C2F30142C3F388131B
:10040000013201FB03F35200B3FBF2F30360CAE7CE
:10041000003802400024F4000000002000127A009E
:1004200010B5D0F8E83504461B699847032384F8D3
:100430001231002010BD00BF08B5042290F812113F
:10044000D0F8E83580F8131180F81221DB6898475E
:10045000002008BD08B5D0F8E435DB6903B1984742
:10046000002008BD08B5D0F8E4351B6A9847002085
:1004700008BD00BF08B5D0F8E4355B6A9847002096
:1004800008BD00BF1C494B6D1A79022A00D0704785
:1004900010B41A4C93F9102002EB820204EB820292
:1004A00012691089800708D51289100605D49A6848
:1004B00092070AD45DF8044B704700BF4B6D1A7960
:1004C000022AE7D05DF8044B7047896D0C480D4A4D
:1004D0004FF4FA7404FB01F1A2FB0121446889097D
:1004E0004268121B9142FBD25B69002BE2D01A6872
:1004F0009B881383DEE700BF9810002000000020D7
:10050000001000E0D34D6210034B93F82400003834
:1005100018BF0120704700BF981000200B4B1A6DC8
:1005200042B1106891880269114203D1002283F818
:10053000242070471A7E0132D2B2072A1A76F5D8E3
:10054000D96D5961012283F824207047981000204A
:10055000034B93F82400032894BF00200120704728
:100560009810002000487047C010002030B4194B8C
:1005700000209C7B14B11D688D4206D001300828F4
:1005800003F11003F5D130BC70479AB1124B03EB65
:1005900040218A4219D0114B93F8B4218AB1104BF3
:1005A00001225A7000F5817003EB00100123837162
:1005B00030BC70470A4B00F5817003EB001082716C
:1005C000E1E7012283F8B421E9E7022CE3D1183BEB
:1005D000E8E700BFDC2E0020DC1E0020C42E002037
:1005E000C41E002030B41D4C002384F8A03004F158
:1005F000180004E00133082B00F110001ED005683C
:100600008D42F7D190F80EC0BCF1030FF2D1BAB110
:10061000134901EB4320824209D094F8B42112B966
:10062000012284F8B4210F4901224A7000E01839F0
:1006300003F5817301EB031301229A7130BC7047FB
:100640000849D4F89C2003F5817301EB03130132B0
:1006500004219971C4F89C20F0E700BFC42E00204B
:10066000DC1E0020C41E00200378022B12D00E498D
:1006700043680269D1F8180210B41840D1F810424A
:10068000D1F80C12931E400A04FB030008445DF8E5
:10069000044B7047044B4268D3E9800100EB4100F2
:1006A00000EB5220704700BFC42E00202DE9F84F08
:1006B00012F0020E01D000283CD0864DD5F8087209
:1006C000002F43D14FF0FF3C834CE146E046E24629
:1006D00000262768B84200F0D18094F80EB0BBF134
:1006E000000F4ED0BBF1010F16D17C4F06F5817B78
:1006F00007EB0B1B9BF807B01BF0010F0CD11BF095
:100700007E0F09D15FEADB1740F0AC80D4F808B067
:10071000D34501D2DA46B1460136082E04F1100461
:10072000D7D1BCF1FF3F38D1B8F1FF3F30D06B4C8F
:10073000C44633E0674D95F8B431A5F58054E3B174
:100740000123637002263046BDE8F88FD5E9834661
:1007500006FB0744A042B5D395F8B43113B9012381
:1007600085F8B4315D4B012200265A703046BDE851
:10077000F88F95F8B431002BE2D1012385F8B4311C
:10078000DEE7B4460136082E04F11004A1D1C8E713
:10079000B9F1FF3F18BFCC466CD0504CD5F89860EB
:1007A00004EB0C1841F21809013648F8090041F22F
:1007B0001C090CF5817748F809604FEA0718C5F85D
:1007C000986044F8086004EB07164FF00008C6F87C
:1007D000048004EB0716B679042ECAD8DFE806F0C9
:1007E00003194A192F0012F0010860D104EB071019
:1007F000D61090F80790032B66F3C71980F807907E
:1008000053D94FF6FF70834228BF034604EB07100D
:100810008380BEF1000F12D0D5F89830D5F89C0037
:1008200001330130C5F89830C5F89C0004EB0C107A
:1008300041F21C05435104EB071304209871D306C1
:1008400008D504EB0714E379C3F34502013262F3E0
:100850004603E371224B012603EB4C230B60304629
:10086000BDE8F88FB0460136082E04F110047FF47D
:1008700030AF56E700263046BDE8F88F174C06F536
:10088000817704EB071C4FEA07189CF806C0BCF1FF
:10089000000F01D1B44681E7B446D5F8986001361F
:1008A00044F80860C5F8986093E74346AEE70D4BFF
:1008B0001B6E002BDED00A495D680B4A01EB4C2110
:1008C0000023A8470028D5D004EB07140223A37106
:1008D00039E700BFC42E0020DC2E0020C41E0020FB
:1008E000DC1E0020981000206D05000870B5104E29
:1008F0003378022B0F4B0BBF020AC0F3D412C4B2E1
:1009000000F07F04D3F8000282B010440D460023AB
:10091000032201A9FFF7CAFE012807D13378022B71
:10092000019B0CBF23F8145043F8245002B070BD53
:10093000C41E0020C42E00202DE9F04FDFF82C81CA
:1009400098F80060032E85B00C46154643D0012868
:100950008CBF00220122022E0B68019269D14FEA5E
:100960001329DFB24FF4807A0138012820D84FF0E4
:10097000010B9D4217D93C4ED6F878211AB1D6F812
:100980009411994258D0D6F8000200234844092215
:1009900003A9FFF78BFE01282CD0022817D020B125
:1009A00023689D42E8D82560032005B0BDE8F08F9C
:1009B000F7B12D4B93F8B42112B9012283F8B42179
:1009C0000123022088F8013005B0BDE8F08F022035
:1009D00005B0BDE8F08F01288CBF002301230193EF
:1009E0000B684FF0800AC3F3D41903F07F07BBE70D
:1009F000D346BEE798F800200399DDF804C0022A28
:100A000014D0032AE3D151F8273023F07043B3FA0E
:100A100083F35B0963455F44236821D05B445745FA
:100A20002360ECD309F101090027BAE731F8173048
:100A3000EDE74FF4807AD6E7D6F81012013A02EBD0
:100A400041224902B2FBF1F21344B3FBFBF20BFB70
:100A500012320AB15B449B1A9D4223608CD8A2E7F4
:100A6000AB42A2D39FE700BFC42E0020C41E0020CB
:100A700030B50446C06983B010B9012003B030BD61
:100A80000D460023032201A9FFF710FE0128F5D12E
:100A9000B4F92030002B0ADA144B93F8B4210AB9C8
:100AA00083F8B401124B01225A700220E6E7019A42
:100AB000012D4FEA431102EB431303D0022D11D154
:100AC000E5255554A268DA612278032A04D1002270
:100AD0001A775A779A77DA77626A5A83120C9A826F
:100AE00003B030BDE268DA61EEE700BFC42E00203B
:100AF000C41E002038B590F834300446052B43D886
:100B0000DFE803F01E033C0F185E006B4FF0FF316F
:100B1000FFF7ECFE012837D1E06AB8BB032384F865
:100B2000343000212046FFF7A3FF01282CD10423F5
:100B300084F8343094F82830082B2BD0012038BDAD
:100B4000204DD5F8082200F1300102320120FFF7D4
:100B5000F3FE012823D00238C0B2012814D805239F
:100B600084F8343094F82830082B04BF002384F82C
:100B70002830012385F8B531022038BDC06A216BC9
:100B8000FFF7B4FE0128C9D0002038BD022384F845
:100B90003430F4E7002384F82830012038BDE368BE
:100BA000D5F81012D4E90B2003EB4123C5F8140249
:100BB000C4E9033002B96062012384F83430A5E748
:100BC000004DCFE7C42E002030B5044683B0FFF7B8
:100BD0004BFD94F91B506B1C1AD0334B41F2180299
:100BE00003EB05118A58824205D103F1180000EB8E
:100BF000452003B030BD03F5805292F8B41111B90D
:100C0000012182F8B411012200205A7003B030BDD6
:100C10002378022B05D02369002B36D1002003B0A6
:100C200030BD224A6368D2F82022B3EB422FF5D2BE
:100C300030B91E4B93F8B4211AB31B4B01225A70E2
:100C40000023112201A9FFF731FD0128E6D1019807
:100C5000174BC31A48BF03F2FF13B3F5805F4FEA87
:100C600063220BD3114B93F8B42112B9012283F8FC
:100C7000B4210D4BE57601225A70BAE755B2E576FC
:100C8000B7E7012283F8B421D7E7074A1278032A8D
:100C900005D09BB24FF6F7729342C9D9BEE7054A19
:100CA0009342C5D9BAE700BFC41E0020C42E00205D
:100CB000DC1E0020F7FFFF0F10B5037890F818C076
:100CC000023B012B044602D91CF0060F6AD11CF02E
:100CD000200F44D194F91A30591C0AD0384A03F530
:100CE000817302EB0313FF21DA796FF30002DA71EB
:100CF000A17694F91B305A1C16D0314903F5817343
:100D000001EB031201EB0313D279D979C2F3450247
:100D1000012A86BF02F1FF3202F03F02002262F395
:100D20004601FF22D971E2761CF0080F0ED0254B48
:100D300093F89821072A06D093F8B421002A3BD0D3
:100D40001F4A01215170002283F89821E26A002392
:100D5000237084F8283022B3BDE8104010470023E8
:100D60001949E0691A018A58904206D00133082BCC
:100D7000B0D01A018A589042F8D1114903F5817315
:100D800001EB0312D279C2F34502012A12D9013ACA
:100D900002F03F0201EB0313D97962F34601D971E6
:100DA00098E710BD0121FFF763FE0128F9D194F8FF
:100DB00018C08CE70022EDE7012283F8B421BFE7D9
:100DC000C41E0020C42E0020DC2E0020A8B18368A1
:100DD0001BB10E4B07229A7070470C4A1178D360F2
:100DE00003294FF004000CBF80214FF48071C2E949
:100DF00001111361137590707047044A02F5805118
:100E00000123537081F8B431704700BFC41E002025
:100E10000379022B00D0704710B590F910201F48BD
:100E200082B002EB8202083169444FF0000C0124C9
:100E300000EB82028DF800C08DF801408DF8023081
:100E400011F808EC126916498A4222D0A1F57841BE
:100E50008A4220D001F580618A4218D1118821F0A0
:100E60004001090403EB8303090C118000EB8300AC
:100E70001388C16923F0380331F82E101B041B0CB2
:100E80000B43138013889BB243F04003138002B0DE
:100E900010BD6346E2E72346E0E700BF0000002004
:100EA000003001400379022B00D0704783689B0714
:100EB000FBD5436913B11A689B885383064B0749D6
:100EC0009A6D074B4868D200A3FB023292094B6827
:100ED0001B1A9A42FBD2704798100020001000E0C5
:100EE000D34D6210064B53F820303BB11A689B88F3
:100EF00051690B4201D0538370471383704700BF81
:100F00003C540008074B53F8203021B14BB11A680C
:100F10009B8853837047002BFCD01A689B881383EF
:100F2000704770473C540008224B5B68C3F30803CA
:100F300030B4DBB9EFF31183C3B91F4B4FF0E02C92
:100F4000D96DDCF81800DA6D8A42F9D1996E8142C8
:100F5000F6D39C6D4FF47A7C0CFB04F30021181A35
:100F6000B0FBF4F030BCE2FB0C017047EFF31181F1
:100F7000102383F312884FF0E022C9B295691369F8
:100F800013F4803F0C4B1EBF012058669569D86D45
:100F90005A6E81F311889C6D4FF47A7C13180021EE
:100FA0000CFB04F0401BB0FBF4F030BCE3FB0C0185
:100FB000704700BF00ED00E098100020014BD8669C
:100FC000704700BF9810002070B5134E96F862501D
:100FD0004FF0000E64364FF000619DB136F804CC3E
:100FE0000B464FEA8C2C002283420EF1010402F1E1
:100FF00001026144634401D881420AD8AA425FFADF
:1010000084FEF1D1B5780436002DE7D14FF0FF30E2
:1010100070BD4FFA8EF070BD0000002070B5124E0A
:101020003378022B114B0BBF020AC0F3D412C4B2A7
:1010300000F07F04D3F8000282B010440D46002374
:10104000012201A9FFF732FB01280AD13378022BD4
:10105000019B16BF53F8243033F8143023F070434B
:101060002B6002B070BD00BFC41E0020C42E002043
:101070002DE9F0434368C3F308020A44B2F5007F48
:1010800083B004460D4605D22B446360012003B0B3
:10109000BDE8F08390F91A20501C0AD0444902F5AB
:1010A000817201EB0212D1796FF30001D171FF223D
:1010B000A27694F91B20511C16D03D4802F581718F
:1010C00000EB011200EB0111D279C879C2F345029D
:1010D000012A86BF02F1FF3202F03F020022FF2602
:1010E00062F34600C871E67694F800C0BCF1020FC6
:1010F000CAD0DFF8C480D8F81022B5EB422F4FEAEF
:10110000422915DCD8F818721F407A42AA420FDC37
:10111000EA194A4510D220690028B7D0244A12782B
:10112000032A40D080B24FF6F7729042ACD9ADE7B7
:10113000002003B0BDE8F083227E206912F008068B
:1011400026D0D8F89421411C8A4213D300D1002123
:101150004B44A5EB0905DB1BBCF1020F60613D446C
:10116000216163600846D7D1D8F82022B3EB422F23
:101170008AD38BE798F8B42122B9012388F8B431D7
:10118000636820690A4A0126567094F800C0DFE7B8
:1011900001A9FFF743FF0128CAD10199636894F8B8
:1011A00000C02069D4E7034A90427FF66DAF6DE737
:1011B000C41E0020F7FFFF0FC42E002038B5B0F981
:1011C00004300F2B04460D4611D02248FFF7FCFCDB
:1011D0000346D8B1A2881F48013212B203EB421372
:1011E000A2802B60FFF740FA2060012038BD19482B
:1011F0004FF40071FFF73CFFE8B14FF6FF73A38097
:101200001448FFF7E1FC03460028E3D1124A02F537
:10121000805393F8B811022906D0D3F8C83163B9C6
:1012200000232B60012038BDD3F82022D3F8BC3135
:10123000B3EB422FF4D2002038BD1278032A05D038
:101240009BB24FF6F7729342F5D9E9E7034A93420E
:10125000F1D9E5E77C300020C41E0020F7FFFF0F26
:101260000B0614D401EB810300EBC30300224FF003
:10127000010C00EB810083F876C383F8741383F8C4
:101280007523426D136843F400131360704701F037
:101290007F0101EB810200EBC202012300EB810020
:1012A00082F81E3182F81C1182F81D3180690268B3
:1012B000002A01DBC2F3807305499B0301EA124156
:1012C00043F020030B4363F31F420260704700BFEB
:1012D000DFBFFFFF10B40123846980F81E314FF493
:1012E0008072A0F81C2122681449002AA8BFC2F30A
:1012F00080739B0301EA124143F020030B4363F325
:101300001F42416D226001234FF0000CA0F874C30E
:1013100080F876330B680A4A43F400130B600A61C5
:10132000C378012B06D100F2CC5048614FF08023E6
:101330000A680B605DF8044B704700BFDFBFFFFF1A
:10134000180008604309012200F01F00023B02FA66
:1013500000F0032B07D8DFE803F0020C11070A4B5B
:101360005A6C104358647047074B5A6B10435863CC
:101370007047054B1A6C104318647047024B1A6B88
:1013800010431863704700BF0038024020B3036861
:10139000124A30B503F13F4303F57E0302EB93237A
:1013A000054683B00C46187BFFF7CCFFAA88009255
:1013B00004F00303C4F381028DF8043028688DF82B
:1013C00005200023694664098DF806308DF8074032
:1013D000FEF794FF03B030BD704700BF3C540008D7
:1013E00070B44B78012B28D00B784D6900EB830348
:1013F0005C6D2268236923F4002323F07F03ADB1E1
:101400008D684D6105F07F0545F400252B43236170
:10141000C378012B04BF0B696361C2F3076363F0F8
:101420007B0363F31F62226070BC70478D6805F018
:101430007F0545F400252B43E9E784694D6922685F
:10144000236915B38E68B5428CBF66F3060365F356
:10145000060343F4002388BF4E612361C378012B48
:101460001DD0C2F3076565F07B0565F31F6222603E
:10147000002BD9D14B69002BD6D002690878516B6B
:10148000012383400B435363CEE723F4002323F06F
:101490007F0343F400232361C378012BE1D10B7850
:1014A0000D6900EB8300C2F30763816963F07B037E
:1014B00063F31F624D61226070BC704730B44B789B
:1014C000012B4FF0000226D00D7800EB85035C6DF8
:1014D0000123AB4063F31F4225682B0415D48B68AE
:1014E00091F803C0C988C3F30A0343F0805343F45F
:1014F00000430CF0030C01F00F0143EA8C4343EA74
:101500008153094929400B4323600369D9690A4380
:1015100030BCDA6170470C78A34000EB840463F3BD
:101520000F02A469D8E700BF007833EC70B500253E
:10153000402600F55D71A0F87453C0F87C6380F814
:101540007753FFF7BBFF4FF4807300F58E71A0F85F
:101550001C31C0F8246180F81F51A0F82251FFF718
:10156000ADFFD0F8E835012280F812215B68807861
:101570009847284670BD00BF30B5013B84894FF4C1
:101580007A7C4FF6FF74002A3FD012F8015BB0F866
:1015900008E00CF1FF3C1EF0020E1FFA8CFC12D08A
:1015A000ADB285814FF47A7CB0F808E01EF0010EF0
:1015B0000CF1FF3524D08589ADB209B101F8015B8A
:1015C000013BE0D230BDA445E1D1124B984209D095
:1015D000A3F5784398421AD003F580639842F1D17D
:1015E0004FF0020E0C4B0EEB8E0E03EB8E0EBEF880
:1015F000203001339BB2AEF82030BEF8203030BD31
:101600001FFA85FCA445CFD1DFE7FF25BFE74FF0E8
:10161000010EE7E70030014000000020F8B5054664
:1016200090F910001D4C00EB800004EB8000AC68CA
:101630000069A4071CD5FFF79FFFAB689B0700D587
:10164000F8BD174B17499A6D174B4FF4FA7000FB12
:1016500002F2A3FB0232486892094B681B1A9A42B5
:10166000FBD26B69002BEBD01A689B881383F8BD03
:101670006C6914B12668A4887483094C094EA46D62
:1016800077684FEAC40E084CA4FB0E4E4FEA9E1E2C
:101690007468A4EB070CE645FAD2CCE70000002002
:1016A00098100020001000E0D34D62102DE9F047A3
:1016B000274FDFF8A490274CDFF8A0A082B000F1FC
:1016C0000108002606E09DF80700FF282DD101360D
:1016D00046452AD07D6D95F91030AA6803EB830347
:1016E00009EB83039207186922D5012300220DF12B
:1016F0000701FFF741FFAB689B07E4D4BA6D61684F
:101700004FF4FA7303FB02F2AAFB023292096368F8
:101710005B1A9A42FBD26B69002BD4D09DF807006C
:101720001A689B881383FF28D1D002B0BDE8F087E8
:101730006B6913B11A689B885383BA6D6168D200D4
:10174000AAFB0232920963685B1A9A42FBD2CCE789
:1017500098100020001000E000000020D34D62101F
:1017600070B5044608200D46FFF7A0FFFF2812D0F1
:10177000FE2801D0022070BD084E2B46706D214618
:101780000022FFF74BFF0022706D02231146FFF786
:1017900045FF002070BD012070BD00BF98100020E3
:1017A00030B5104D83B000244FF6FF50022301AA3C
:1017B0002146ADF80400686D2C62FFF72FFF012071
:1017C000FFF774FFFF2807D0EB6D6B6109222046FD
:1017D00085F8242003B030BD0423022085F824308E
:1017E00003B030BD981000202DE9F043284FDFF8FA
:1017F000A880284CDFF8A49083B0082605E09DF867
:101800000730FF2B2CD0013E3ED07D6D95F9103076
:10181000AA6803EB830308EB83039207186923D5B7
:10182000012300220DF10701FFF7A6FEAB689B071D
:10183000E5D4BA6D61684FF4FA7303FB02F2A9FBB9
:101840000232920963685B1A9A42FBD26B69002BE1
:10185000D5D01A689B8813839DF80730FF2BD2D10F
:10186000012003B0BDE8F0836B6913B11A689B884F
:101870005383BA6D6168D200A9FB02329209636892
:101880005B1A9A42FBD2CBE7304603B0BDE8F08347
:1018900098100020001000E000000020D34D6210DE
:1018A00010B582B004460B0E080C0A0A44F0400C36
:1018B0008DF8013095238DF800C08DF802008DF869
:1018C00003208DF804108DF80530FFF78DFF00B967
:1018D0005CB9074A0623506D00216A46FFF79EFE59
:1018E0000820FFF7E3FE02B010BDFF2002B010BDDC
:1018F000981000202DE9F041294C82B00546884619
:1019000017461E4694F8240004280CD0082806D157
:10191000E369AB423FD0FFF743FF0228F2D001203A
:1019200002B0BDE8F081606DFFF7BCFAA37E53BB47
:1019300069021820FFF7B4FF38BB94F82430082B55
:101940004FF0FF038DF804300CBFFC23FE23606DC5
:101950008DF8053001AA02230021FFF75FFE606DBC
:10196000424680230021FFF759FE01220623002072
:10197000C4F800806560E7602661227284F8243034
:1019800002B0BDE8F0812946D3E7FEF77BFDFEF704
:10199000C5FD0320C4E7FF238DF80430FC23D6E700
:1019A0009810002070B51D4C94F82430042B064686
:1019B0000D4608D0082B20D1E36983422BD0FFF7D6
:1019C000EFFE022819D1606DFFF76CFA0021372075
:1019D000FFF766FF29461720FFF762FFA8B9A37E2D
:1019E0006BB971021920FFF75BFF70B90823C4E9D6
:1019F000076584F82430022070BD012070BD314697
:101A00001920FFF74DFF0028F0D0FEF73BFDFEF751
:101A100085FD032070BD022070BD00BF981000201E
:101A20002DE9F041184C054694F824000428884616
:101A300017461E4608D0082802D00020BDE8F081D5
:101A4000FFF7AEFE0228F8D1606DFFF72BFAA37EF8
:101A50008BB969021120FFF723FF90B9E36DC4F839
:101A600000800522C4E9037684F824206560636160
:101A70000120BDE8F08129461120FFF711FF002861
:101A8000ECD0FEF7FFFCD8E7981000202DE9F041DC
:101A9000BF4C606D86B0002838D094F82400BD4D4E
:101AA00004F14006431E082B1CD8DFE813F0840025
:101AB000AB0013011B000900540041001B00320061
:101AC00020684FF40071FFF74BFE0128074600F035
:101AD0006581022800F06881002800F07A8194F87E
:101AE0002400431EDBB2022B08D8E36D62699B1A07
:101AF000C82B06D9FEF712FD94F82400042800F044
:101B00006481A0F10800B0FA80F0400906B0BDE899
:101B1000F081FFF769FE002840F0E6816369E26D1D
:101B2000FA339342DBD2FEF7F9FC94F82400B9E7CC
:101B3000FFF75AFE0028F1D0236A0022012B2276FB
:101B400040F2EF81E2690820013B0132C4E907233A
:101B500084F82400D5E72368227A606D03EBC21273
:101B600000218023FFF75AFD237A0133DBB2042BD7
:101B70002372B4D1606D02232A460021FFF74EFD87
:101B80000123606D002202A9FFF748FD9DF808308F
:101B900003F01F03052B00F0AF81FEF7BFFCE768E1
:101BA000002F00F00F810120236961680022B847EF
:101BB00094F8240076E7606DFFF774F90021084679
:101BC000FFF76EFE0746FEF75DFC012F3ED1606D0C
:101BD0004FF0000884F81980FFF764F940F2AB1168
:101BE0000820FFF75DFE052800F0F180012800F0D5
:101BF0001981FEF747FC637E002B00F08F810223E2
:101C000084F82430606DFFF74DF9637E0021022BCC
:101C10000CBF4FF080470F463720FFF741FE394693
:101C20002920FFF73DFE0746FEF72CFC77B9637EBF
:101C3000022B00F0DD80A776606DFFF733F90021FD
:101C40000920FFF72DFE48B1FEF71CFC606D022154
:101C5000FFF7DEF894F82400431E43E710213046D6
:101C6000FFF77EFD0028EFD194F84F30DB07EBD56E
:101C700094F84010891100F0E9800129E4D194F82A
:101C80004720DFF814C19200D2B216210227C7F113
:101C900008038B4228BF0B46C3F108073A4198401E
:101CA000C91A40EA02004FF000071CF8012FEED1DC
:101CB000431C9B02A362FEF7E5FB606DFFF7F2F8A1
:101CC00000210A20FFF7ECFD002840F0B880032334
:101CD00084F82430102102A8FFF742FD0028B5D176
:101CE000BDF809209DF810309DF8081084F82E10DA
:101CF00052BAA2859DF80B2084F82F209DF80C2065
:101D000084F830209DF80D2084F831209DF80E20B5
:101D100084F832209DF80F2084F8332003F00F015F
:101D20001A099DF8153084F838201B019DF81620FB
:101D3000DDF8110084F83910DBB243EA121303F521
:101D4000FA6300BA02F00F026387606384F83C20F4
:101D5000FEF798FBA37E6BB9606DFFF7A3F84FF415
:101D600000711020FFF79CFD0746FEF78BFB002F4C
:101D70007FF4D9AE606D0221FFF74AF800220423F8
:101D80000120226284F8243006B0BDE8F08100BF53
:101D90009810002050540008DF1000206369E26DA5
:101DA00064339342BFF49BAEFEF76CFBFEF7B6FBC9
:101DB000E7683FB10022104623696168B84794F88C
:101DC00024006FE694F824006CE601209EE6677616
:101DD0000FE7FEF757FBE5682776042384F82430E5
:101DE000002DF2D02369226861683846A84776E65C
:101DF000606DFFF757F839463A20FFF751FD3A4634
:101E000080460423606D02A9FFF708FCFEF73AFB49
:101E1000B8F1000F7FF487AE029B1BBAC3F3807347
:101E2000A37609E70423606D424602A9FFF7F6FB9B
:101E30009DF80B30AB2B04BF02236376D9E6FEF787
:101E400021FBFEF76BFB94F824002BE694F8453059
:101E500094F84900DFF8E4E003F00F038001012764
:101E60005FFA80FC9F4006200323C0F108029A42DB
:101E700028BF1A46C2F108004CFA00F091409B1AA4
:101E800041EA00011EF801CF4FF00000EDD194F8B7
:101E900046E0DFF8AC804FEA8E1E02315FFA8EFE1C
:101EA0004FF00C0C062200E00022C2F1080262454D
:101EB00028BF6246C2F108004EFA00F09340BCEB26
:101EC000020C18F801EF43EA0003EDD101338B4017
:101ED000F917A3FB077203FB01227F0A47EAC257E7
:101EE000A762FEF7CFFAE8E60190FEF7CBFA0423EB
:101EF000019884F8243009E6E568E36D6361072002
:101F000084F82400002D3FF4FCAD23690120D4E9BE
:101F10000021A84794F82400431EE3E584F8243008
:101F200094E605D0042384F82430FEF7ABFAD6E516
:101F3000FFF736FC02287FF4D2ADF6E7E11000206F
:101F4000DE1000202DE9F047038A8489A4B21C40EA
:101F500082B045D0814688464FF0004501F14C07DC
:101F600001F13406B4FA84F325FA03F2D24391B2B4
:101F7000A9F8101014401B3BB8F1000F5DD0042BE2
:101F80002CD8DFE803F050463B300300D8F80C3083
:101F9000D9F82CA033B19B6823B11FFA8AF108F15C
:101FA00004009847D8F8243033B19B6823B11FFA56
:101FB0008AF108F11C009847D8F83C302BB19B6897
:101FC0001BB11FFA8AF130469847D8F854302BB12C
:101FD0009B681BB11FFA8AF138469847002CC1D183
:101FE00002B0BDE8F087D8F80C30D9F834105B683F
:101FF00008F104009847002CB4D1F1E7D8F8243058
:10200000D9F838105B6808F11C009847002CA9D15A
:10201000E6E7D8F83C30D9F83C105B683046984782
:10202000002C9FD1DCE7D8F85430D9F840105B6819
:1020300038469847002C95D1D2E7042B07D8DFE823
:1020400003F00319140F0A00D9F840300193019BE3
:10205000002C87D1C4E7D9F82C300193019BF7E716
:10206000D9F834300193019BF2E7D9F83830019365
:10207000019BEDE7D9F83C300193019BE8E700BFF5
:1020800000283AD0036830B503F13F4314461B4A99
:1020900003F57E0302EB9323054683B0187BFFF71D
:1020A00051F9AA8828680092B2FA82F301F0030578
:1020B000C3F11F038DF80450C3F3CC0500EB850575
:1020C0004A0903F007038DF807204FF00F0C2A6A26
:1020D0009B009C400CFA03F322EA03032B622A6A5A
:1020E00002218DF80510144300218DF806102C6292
:1020F0006946FEF703F903B030BD70473C54000851
:1021000070B590F8CF2590F8D13590F8CE5590F86D
:10211000D0C590F8CC1590F8CD6505EB02250CEBF9
:10212000032C90F8D32590F8D23503EB022301223B
:1021300084B080F8112101F01F029BB2ADB21FFAEA
:102140008CFC012A04468DF80810ADF80A50ADF851
:102150000CC0ADF80E30C0F840318DF809600AD0DF
:10216000022A57D0002A3CD001F08001FFF778F80E
:10217000002004B070BD90F81231032B2BD15FFA10
:102180008CFCBCF1010F26D8D0F8E43502A99B687D
:102190009847BDF80E30002BEAD1C4E94A33C4E9B0
:1021A0004C3304214FF4807284F81111A4F81C21DF
:1021B00004F58E712046FFF713F9636DC34A1A6167
:1021C000E278012AD4D104F2CC545C614FF0802231
:1021D00019681A60CCE72046FFF77CF8002004B0AD
:1021E00070BD092EF7D801A252F826F097220008F8
:1021F000A3230008D7210008DD230008D721000809
:102200000B240008B7220008D7210008212300086A
:102210005123000801F0600120295FFA8CF334D0CB
:10222000012E00F05F81032E00F09381002E9FD1DC
:1022300090F81221022A00F01981032ACBD11CF058
:10224000800F40F0A28103EB830300EBC30393F8FC
:102250007633002B00F0A4819D4B0122C3F880202F
:102260009C4A0223C4E94E334FF48070002184F865
:102270001131A4F81C01C4E94C31C4E94A2204F527
:102280008E712046FFF7ACF872E7D0F8E43502A96A
:102290009B6898476CE790F81231023B012B9AD863
:1022A0008B4BD0F81821002199670AB102229A6756
:1022B000894A0223D6E72E0A022EADF8063000F036
:1022C000CD81032E00F09181012E84D1D0F8EC3520
:1022D00080781B680DF106019847BDF80630002B89
:1022E0003FF446AFBDF80E20002A3FF441AF9342C1
:1022F00028BF13464FF480720221A4F81C2100224B
:10230000C4E94A0084F81111C4E94E33C4E94C32DF
:1023100004F58E712046ADF80630FFF761F827E727
:10232000012B7FF458AF90F81221022A00F0498166
:10233000032A7FF450AF4FF4807100F588720220B9
:10234000A4F81C11C4E94E3384F81101002192E76E
:10235000EDB25F4E012D86F870503FF63CAF90F81D
:102360001231022B00F02181032B7FF434AF002DBA
:1023700000F07F8190F81011012910D0D0F8E435D9
:102380005B68984796F87010D4F8E43584F810111B
:102390001B6820469847D4F8E8359B689847002387
:1023A000FBE690F81231023B012B3FF614AF012DF2
:1023B0007FF4DEAED0F8E43500259B68C0F81851F4
:1023C00002A9984704224FF48073C4E94A55C4E92E
:1023D0004C5584F81121A4F81C31E9E6012D00F0D8
:1023E000CC80022D7FF4C4AE5FFA8CF3002B7FF417
:1023F000BFAE02694FEA1C23023B5268032B00F276
:102400005681DFE803F05A426B5E5CEA03037FF417
:10241000E2AE90F81221032A3FF4DDAE016905F027
:102420007F0680F8146108681A4665F30A120243B1
:102430000A604FF480720421C4E94A33C4E94C3382
:1024400084F81111A4F81C2104F58E712046FEF7C2
:10245000C7FF636D1D4A1A61E278012A0DD0002E74
:1024600000F01281022384F8123181E65A063FF40B
:102470007FAE1946FEF7F4FE7AE604F2CC525A61BA
:102480004FF0802219681A60E9E7032363F306120C
:1024900001210F4D84F816110421002384F8111135
:1024A0004FF48071A4F81C11C4E94A33C4E94C33D9
:1024B00004F58E712046EA677DE6022363F3061277
:1024C000E6E7052363F30612E2E700BF18000860A1
:1024D000981000201811002010110020042363F32D
:1024E0000612D5E790F81221022ABFD0032A7FF402
:1024F00072AE002D7FF43CAE13F07F023FF44FAF7D
:102500001CF0800F40F0C48003EB830100EBC1019D
:1025100081F8742381F8765381F87553282101FBE3
:10252000030300EB820293F87713506D03688A1E51
:10253000012A6FF35553D4F8E4258CBFC3F300711F
:10254000012161F31C739268036002A92046904741
:1025500025E790F81221022A88D0032A7FF43BAEA7
:1025600025B9590602D01946FEF77AFED4F8E435AB
:1025700002A99B682046984711E7D0F8E43502A9E4
:102580009B68C0F81851984709E703F07F0303EBF5
:10259000830300EBC30393F81E31002B7FF45CAE82
:1025A000454B0022C3F880205AE6002D3FF40AAFC5
:1025B00001210322D0F8E43580F8101180F81221AF
:1025C000E6E63E4984F811214FF480700022C4E908
:1025D0004A11A4F81C01C4E94E33C4E94C3204F595
:1025E0008E712046FEF7FCFEC2E5EDB2052D3FF6EA
:1025F000F2ADDFE805F02B231B130B03D0F8EC350D
:1026000080789B690DF10601984766E6D0F8EC35B5
:1026100080785B690DF1060198475EE6D0F8EC35ED
:1026200080781B690DF10601984756E6D0F8EC3525
:102630008078DB680DF1060198474EE6D0F8EC355E
:1026400080789B680DF10601984746E6D0F8EC3596
:1026500080785B680DF1060198473EE6D0F8E435D6
:1026600080789B6A0DF1060198474670C4F8F00522
:1026700033E60222D0F8E43580F8122180F81051B8
:102680005B68294698479DE6012384F812316FE57F
:10269000282303FB020181F81C2100EB820281F850
:1026A0001E5181F81D61906991F81F113EE70123C9
:1026B00063F30612ECE600BF981000200C11002016
:1026C00010B5044629B990F81121032A0DD0002035
:1026D00010BDD0F8E4359B69002BF8D090F812219A
:1026E000032AF4D19847002010BDD0F890230B4660
:1026F000D0F87C138A4213D9C078521A0128C4F842
:10270000902336D08A4228BF0A4692B2C4E9E22317
:1027100004F55D71A4F874332046FEF761FED6E738
:10272000D0F8E4351B691BB190F81221032A1ED0A2
:1027300000234FF480720421C4E94A33C4E94C33C6
:1027400084F81111A4F81C2104F58E712046FEF7BF
:1027500047FE636D104A1A61E278012AB7D104F28C
:10276000CC545C614FF0802219681A60AFE798473B
:10277000DEE78A42D4F88003A4F8743328BF0A46FF
:10278000084492B2C4E9E22304F55D71C4F8800301
:10279000C4F88403C0E700BF1800086038B50446D9
:1027A00049B990F81131022B11D094F81631012B50
:1027B00040D0002038BDD0F8E4355B69002BF8D05C
:1027C00090F81221032AF4D19847002038BDD0F8A0
:1027D0003831D0F82421934235D9C178012908BF76
:1027E000D0F82811A3EB020318BFD0F82821C0F8B5
:1027F000383108BF52189BB24FF480710025C0E9F0
:102800004C35A0F81C11C0E94A2200F58E71FEF784
:10281000E7FDE378C4F88053012BC4E9E255A4F83E
:10282000745308BFC4F8845304F55D712046FEF765
:10283000D7FDBAE72A4B2269D96F5160002384F88B
:102840001631002038BDD0F83C31B3FBF2F502FB65
:102850001535ADB99A4213D8D0F8402193420FD222
:102860004FF48073A0F81C31C0E94A55C0E94C55BB
:1028700000F58E71FEF7B4FDE378C4F84051C9E766
:10288000D4F8E435DB681BB194F81221032A23D075
:10289000E2780023012A4FF0050108BFC4F8843311
:1028A000C4E9E23384F81111C4F88033A4F8743316
:1028B00004F55D712046FEF793FD636D094A1A61C8
:1028C000E278012A7FF471AF04F2CC525A614FF0E2
:1028D000802219681A6068E720469847D8E700BF49
:1028E000981000201800086038B5D0E9015290F91E
:1028F0001A3004469542284638BF10465D1CA06039
:102900000AD0214A03F5817302EB0313DA796FF3DE
:102910000002DA71FF23A37694F91B305A1C18D0F9
:10292000194D03F5817205EB021305EB0212DB79F9
:10293000D579C3F34503012B86BF03F1FF3303F0C1
:102940003F0300234FF0FF0C63F34605D57184F875
:102950001BC0626A81424FF0000328BF0146C4E9F0
:102960000423636020460D46FEF782FB50B994F8BD
:10297000280028B9022384F82830C4E90B0538BDA3
:10298000022038BD012038BDC41E00202DE9F04FC3
:10299000DFF86CB19BF800C0BCF1020F894683B030
:1029A00009688246174640F08C800BF58053CEB202
:1029B000D3F80052A6EB010805EB112590444FF423
:1029C00080739844B94208F1FF38B8FBF3F84CD251
:1029D000A844BCF1030F07EB06040CBF80224FF4A0
:1029E0008072641A9442A8EB050328BF144666B9A6
:1029F00094422CBF0A220B2201A92846FDF756FE5D
:102A0000012809D003B0BDE8F08F0B2201A92846A8
:102A1000FDF74CFE0128F5D19BF800C0D9F8001055
:102A2000BCF1020F01F1010323D0B44210D9019986
:102A300006F18042013A01EB8202043901EB840184
:102A400042F8043F914203F10103F9D1D9F8001093
:102A5000A61B3144BAF1010FC9F8001021D08F42F2
:102A600005F101054FF00006B3D8012003B0BDE821
:102A7000F08FB442ECD9019806F10042013A00EB24
:102A80004202023800EB440022F8023F904203F178
:102A90000103F9D1A61B3144BAF1010FC9F80010A6
:102AA000DDD1B942DBD1BCF1020F1DD004F180446D
:102AB000019B013C4FF0FF3243F82420D9F800106D
:102AC000CDE70BF5805301F07F06D3F80032BCF15F
:102AD000030FC1F3D415A6EB01081D44904414BFA5
:102AE0004FF4807380236CE704F10044019B013CA8
:102AF0004FF6FF72504623F8142003B0BDE8F08F64
:102B0000C41E00202DE9F04190F83C30002982B02D
:102B1000044614BF02210021042B7BD8DFE803F018
:102B2000030C3D486900FDF7A3FF012870D1626BDB
:102B3000002A75D184F83C00404EDFF808814FF63A
:102B4000F77706F5805516E0BA424FD8FEF766FAD9
:102B500001284FF000011DD1206BFDF7C7FE0128B1
:102B600018D1019AD5F814122263531E8B4228BF44
:102B70000B46C5F814323278236B032A01A9184694
:102B80009AB2E1D1434531D8FEF748FA01284FF017
:102B90000001E1D002B0BDE8F081426B04F13001E8
:102BA0000020FFF7F3FE012832D1032384F83C30E4
:102BB0002348E16AD0F89431D0F81022C0F894117B
:102BC0005B1A02FB03F3D0F8782102EB4322C0F832
:102BD0007821D0F87C2102EB4323C0F87C3100211E
:102BE00000F5B870FDF744FF012811D1042384F8E3
:102BF0003C3094F82830042B04BF002384F828309C
:102C0000A36B8BB120469847012002B0BDE8F0814C
:102C10000228BFD194F82830042B09D00220B9E74C
:102C2000022384F83C30B9E7012002B0BDE8F0810E
:102C3000002384F828300220ACE700BFC41E002027
:102C4000C42E0020F7FFFF0F2DE9F04790F8384021
:102C500082B00546032C00F2AD80DFE804F00219D3
:102C6000730BFDF747FF012810D002280AD1032378
:102C700085F838302B6C002085F82800002B71D0A7
:102C800098470224204602B0BDE8F08785F8380056
:102C90002B78022B62D0484A6B68D2F8182203EADC
:102CA0000208C8F34F282846FDF7DEFC424F0646CF
:102CB000A8EB0008A7F5805901A90222002330469D
:102CC000FDF7F4FC08EB060401281FFA84FA4FF420
:102CD00000724FF000010446D4D1019802F092FB3B
:102CE000EB694FF40071284613B16B68002B3DD09F
:102CF000D7F810325A1E924506F101060DD2FEF7A2
:102D0000B7F90028D8D197F8B43113B9012387F85F
:102D1000B431012389F80130CEE7C3EBC353590224
:102D200001F500712846FEF7A3F940B997F8B431D0
:102D300013B9012387F8B431204B01225A700223C2
:102D400085F838302B6C002285F8282063B128469E
:102D500098470124204602B0BDE8F0876B68C3F3B2
:102D60004F28A0E702248DE701248BE7019B4FF059
:102D700020324FF02E0E4FF0100C1A605A6083F87C
:102D800000E0C3F807206C6A1A625A6283F80BC02D
:102D9000C3F8272083F820E083F821E0EA6B5C8306
:102DA0005A8724FA0CF422FA0CF29C8283F82BC086
:102DB0009A869DE7002465E7C42E0020C41E0020EB
:102DC0002DE9F04390F8303083B00446042B52D8FC
:102DD000DFE813F005000F005400DE004D00BE4890
:102DE0000021FFF781FD4FF6FF720123228484F852
:102DF000303004F11C056E4604F131083146284696
:102E0000FEF7DCF9012800F0EB80022833D1B3494A
:102E100001F5805595F9D221531C0AD002F5817233
:102E200001EB0212D3796FF30003D371FF2385F80E
:102E3000D23195F9D3315F1C16D003F5817301EBC4
:102E4000031201EB0313D279D979C2F34502012AA7
:102E500086BF02F1FF3202F03F02002262F3460118
:102E6000FF22D97185F8D321042384F83030002063
:102E7000E36A2070984703B0BDE8F083984D95F859
:102E8000E031002BF7D1DFF8508204F11C076E46C9
:102E90004FF0090931463846FEF790F9012840F015
:102EA0000A810098002800F0E6800378E52B01D025
:102EB000002BEFD18B4A821A48BF02F2FF12B2F503
:102EC000805F4FEA622380F0398184491B01864A82
:102ED00013449A7B042A0CD0D5F898200132C5F807
:102EE00098205A6004229A73D5F89C300133C5F8B3
:102EF0009C3095F9D2315E1C0AD003F5817301EB49
:102F00000313FF2285F8D221DA796FF30002DA7118
:102F100095F9D3315A1C18D003F5817301EB0312D4
:102F200001EB0313D279C2F34502012A4FF0FF01EE
:102F300088BF02F1FF3285F8D311D9798CBF02F036
:102F40003F02002262F34601D9712022002102F0E3
:102F500059FA009BD4F83120D4F8351059601A6022
:102F6000B4F8392094F83B1099721A81009B607E66
:102F7000D87200226FF07E01197419769A73DA7391
:102F80009A75DA75032147225A745A7684F83010FC
:102F9000237E980608D5E0690023112201A9FDF7D8
:102FA00085FB01287FF467AF00212046FFF79CFCDA
:102FB0002369002B00F08380217E01F0F70311F0DC
:102FC0000401237640F09280122B00F0A5800022AD
:102FD000E36A84F828202046984703B0BDE8F083D0
:102FE000009F0B22002F00F0B5803B78002B00F0F3
:102FF000B18097F80B9019F0080F7FF4FFAE4146AF
:10300000384602F007FA00287FF4F8AE637E89EABA
:103010000303D90640F1E080304901F5805595F968
:10302000D2315A1C0AD003F5817301EB0313FF223E
:1030300085F8D221DA7960F30002DA7195F9D321AB
:10304000571C3FF411AF02F5817201EB021301EB43
:103050000211DB79CA79C3F34503012B86BF03F163
:10306000FF3303F03F03002363F34602FF23CA71DB
:1030700085F8D331F8E695F8B831022B3FF4F4AE79
:1030800095F8E031002B7FF4EFAEC5E97D3385F88C
:10309000F03185F8EC31D5F8CC31C5F8E431D5F80C
:1030A000143285F8E091C5F8E8314046FFF7CCFDD1
:1030B00001283FF4EFAE02283FF4D6AEDBE6237ED4
:1030C000190784D5064B93F89821002A7FF4D3AED4
:1030D000072283F898217AE77C300020C41E002064
:1030E000C42E0020DC1E0020DC2E0020A568E66A2D
:1030F000002384F8283029462046FDF7B9FF002830
:1031000064D194F82830002B7FF4B5AE0223C4E9D3
:103110000B6584F82830AEE6636AE26AA263042095
:1031200084F82800C4E90B33C4E9021184F83C1088
:10313000616361622046FFF7D7FB9CE695F8B431E6
:1031400013B9012385F8B431454901234B706FF061
:103150000F03BCE6424901F5805595F9D2315F1C59
:103160000AD003F5817301EB0313DA796FF30002E0
:10317000DA71FF2385F8D23195F9D3315E1C16D070
:1031800003F5817301EB031201EB0313D279D979B3
:10319000C2F34502012A86BF02F1FF3202F03F026C
:1031A000002262F34601FF22D97185F8D321237EE4
:1031B000D8067FF559AE2B480021FFF795FB4FF657
:1031C000FF720223228484F8303058E6002E3FF448
:1031D00052AE2046B0474EE6BA8A7B8B224D43EA78
:1031E00002436362D5F81022FB69A3605202B3FB6D
:1031F000F2F102FB113109B113445B1AE36084F868
:10320000199095F9D23116495E1C0AD003F58173E5
:1032100001EB0313DA796FF30002DA71FF2385F80B
:10322000D23195F9D321501C16D002F5817201EBF1
:10323000021301EB0211DB79CA79C3F34503012BB9
:1032400086BF03F1FF3303F03F03002363F346021D
:10325000FF23CA7185F8D331032384F8303097E611
:10326000C41E00207C300020C42E00202DE9F04F29
:1032700090F82820531E83B00446082B0BD8DFE8B3
:1032800003F03B3F1E2405290A3237000121FFF7D6
:1032900039FC012802D003B0BDE8F08F237800226A
:1032A00084F82820002BF6D0D4E901138B4238BFD4
:1032B0000B46226CA360032184F82810E2622046AA
:1032C00003B0BDE8F04FFDF7F7BC002103B0BDE847
:1032D000F04F17E490F83830032B00F29180DFE8CC
:1032E00003F0406E788403B0BDE8F04FFDF702BCF8
:1032F00003B0BDE8F04FA7E403B0BDE8F04F5FE5D1
:10330000824F4368D7F81852016BD7F810221D403E
:103310006818B0EB422F4FEA42269C46C0F0EF807F
:1033200094F800E0DFF8F091A7F5805A4FF6F778AF
:10333000BEF1020F6BD02069002840F0B080D4F8B5
:1033400004C0A368E26A634538BF63460021A360F6
:1033500084F82810002A9ED0204603B0BDE8F04F24
:1033600010476B4BC16803F580571B78D7F8942141
:10337000032BD7F810320CBF80204FF4807000FB75
:1033800003F301EB4321C4E90312D7F87811A1EB51
:103390004321C7F87811D7F87C11A1EB4323E16AE8
:1033A000C7F87C311318C7F89431C4E90C230029FD
:1033B00000F09D80121A2263012384F838305548AA
:1033C0000021FDF755FB012840F09C80022384F882
:1033D0003830626B04F130010120FFF7D7FA012881
:1033E00040F09080032384F8383000212046FDF718
:1033F0003FFB0138C3B2012B3FF64DAF94F82820B4
:10340000062A7FF448AF002384F8283043E7D4F835
:1034100004C0D7F82022BCEB422F92D22069227E32
:1034200012072ED5D7F8942100F1010C624524D261
:1034300097F8B42122B9012387F8B4316368216B6E
:1034400001228AF8012094F800E0891B29443344C2
:103450005B1B8E42C4E904C0636021639C464FF04D
:1034600000057FF665AFBEF1020F42D0206900284B
:103470003FF467AFDFF898B01FE0E6D14FF0000CE3
:10348000E3E701A9FDF7CAFD01287FF404AF206935
:10349000DDF804C094F800E06368216BD5E79AF882
:1034A0000020032AD3461BD082B2424594BF00229B
:1034B0000122002AB3D0D4F804C09BF80030032BBB
:1034C0000EBF154B80B24FF6F773984294BF0020A1
:1034D000012000287FF435AF8C44C4F804C030E7E5
:1034E000484594BF00220122002A98D0E3E7626297
:1034F00062E7D7F82022B3EB422FEDD321E794F80F
:1035000000E0B0E7431EDBB275E700BFC42E002029
:10351000C41E002034300020F7FFFF0F38B5040927
:10352000013C032C1AD80F4D05EB440200F00F03A9
:10353000118B41FA03F212F0010211D001209840E0
:10354000013808402C4401F0C5FC94F82030064AAC
:10355000184400EB400002EB800038BD002038BD6D
:10356000104638BD3C5400081C11002010B582B034
:10357000FFF7D4FFC8B103680D4A03F13F4303F5D9
:103580007E03044602EB932340F61A610022187B67
:10359000E1802272FDF7D6FEA28820684FF080738A
:1035A0006946CDE90023FCF7A9FE02B010BD00BFBB
:1035B0003C5400082DE9F04F704A714C944283B09E
:1035C00004D385E00C34944280F082806379352BFB
:1035D000F8D12379022BF5D1E379002BF2D12668BB
:1035E000002E75D07360B360F36033617361B361B3
:1035F000F361346022793271A179B1600091012ABE
:10360000217AF16000F09380022A40F08D80E07A08
:10361000FFF784FF94F80AA094F909703774B06139
:103620005046FFF77BFF7061002800F09E80554DEB
:1036300007EB870305EB83034FEA87081C69002C1F
:1036400000F0938093F82220002A7ED040F60D628D
:103650000023C28003720921FDF798FE736913B13C
:103660001A689B881383484C304600216665FDF735
:10367000CFFBFDF759FC06460F46FDF755FC831BB3
:1036800061EB0702B3F57A7F72F10003F5D3626D47
:10369000536913B119689B880B8392F9103003EBBF
:1036A000830305EB8301002208690A231146FDF715
:1036B00063FF606D354B0279022A12D0E16D6161C2
:1036C0000122002384F82420237603B0BDE8F08F84
:1036D0002D4C00236365002384F8243003B0BDE83B
:1036E000F08F90F9102002EB820205EB8202126942
:1036F0001189890702D512891206DFD5013BF0D165
:103700000221FDF785FB656D2B681A79022A18D016
:1037100000232B602B71227E6365013284F82430F4
:10372000227603B0BDE8F08F174C6365D3E7E07AEB
:10373000144DFFF7F3FE627AA37A7374B0613274AA
:1037400091E7987AFFF712FFE2E7197E0846FDF746
:10375000F9FD4A09012301F01F01023A8B40032AB7
:103760001BD8DFE802F0B7BD15B1074C5046FFF794
:10377000FDFE0023336033716365ACE7CC5600086F
:10378000D45400080000002098100020A1860100F9
:1037900080490A6922EA03030B6108EB070305EB82
:1037A0008303587DFFF7BAFE7A1C5FFA82F903465D
:1037B00020B140F60A3180F80890C18008EB07017B
:1037C00005EB81010193C87DFFF7A8FE019B8346AD
:1037D00020B140F60A5180F80890C18008EB07013B
:1037E00005EB81010193887DFFF798FE019B8246DE
:1037F00020B140F60A4280F80890C280009A18462C
:1038000008EB070305EB830312F004095A7E53D03B
:103810004A210092FEF734FC009A58462A2108EB10
:10382000070B05EB8B0BFEF72BFC5046009A0A2189
:10383000FEF726FC9BF814A0BAF1000F40F0A1801F
:10384000554B9C4200F09280544B9C4200F0838088
:10385000534B9C4274D0534B9C4266D0524B9C427B
:1038600058D0524B9C424AD02388B9F1000F03F440
:1038700041520CBF03230023134343F445732380B9
:10388000A38B23F400631B041B0CA3830723238255
:1038900023889BB243F040032380BAF1000F25D167
:1038A00008EB070305EB83037069012283F82220EC
:1038B00000283FF4D0AEC9E60A210092FEF7E0FBF3
:1038C000009A58460A21AAE732494A6922EA0303C4
:1038D0004B6162E72F494A6A22EA03034B625CE7C5
:1038E0002C490A6A22EA03030B6256E75046FFF7A7
:1038F00015FE0028D4D0036882881A83D0E703F528
:1039000064435A6A42F400125A625A6A22F400125C
:103910005A62A9E703F568435A6A42F480125A6270
:103920005A6A22F480125A629EE703F582335A6A79
:1039300042F400525A625A6A22F400525A6293E7E1
:1039400003F5FE331A6A42F400421A621A6A22F43C
:1039500000421A6288E703F500331A6A42F4804293
:103960001A621A6A22F480421A627DE703F58433F0
:103970005A6A42F480525A625A6A22F480525A6257
:1039800072E75046FFF7CAFD9BF819200921FEF7A0
:1039900077FB55E700380240003001400038004016
:1039A000003C004000340140005001400054014000
:1039B0002DE9F04104460D46164600214422984662
:1039C000069F01F01FFD4FF6FF736383012384F808
:1039D000188084F828302B782E2B4DD0294604F1FE
:1039E0003103087804F139024FF0200C88B12E28F9
:1039F000A0F1610E0DD0BEF1190F9CBF2038C0B2EE
:103A000018700133934201F1010107D008780028B2
:103A1000EDD183F800C001339342F7D10A782E2A02
:103A200008BF4A7804F13B0008BF01314FF0200C79
:103A30003AB9984283F800C00FD00A780133002ABF
:103A4000F7D0A2F1610EBEF1190F9CBF203AD2B29D
:103A500098421A7001F10101EFD1012366762370BB
:103A6000E7622B782E2B1ED0002384F830302046BE
:103A7000BDE8F041FFF7A4B96B78002BAED10F4B36
:103A8000D3F8DC216262D3F8C421E260D3F8C0210C
:103A9000A26093F8D121627693F8B8312370E7627F
:103AA0002B782E2BE0D16B78002BDDD1032384F80B
:103AB00030302046BDE8F041FFF782B9C42E002027
:103AC0002DE9F047B94CD4F89C70002F86B054DD36
:103AD0004FF0FF3004F1260206460023A4F580557E
:103AE00004E00133082B02F1100217D011780429E9
:103AF000F7D103F5817105EB0111C979C907F0D43C
:103B0000B6F1FF3F52F80A1C01D08142E9D21E46AD
:103B10000133082B084602F11002E7D1731C4DD186
:103B20006B78022B2ED0032B24D194F8B83113B12B
:103B30009F48FFF79BFB94F8A43013B19D48FFF713
:103B400095FB94F8E83013B19B48FFF78FFB94F88E
:103B50002C317BB1994806B0BDE8F047FFF786BB32
:103B6000974B00930322AA70964997483023052269
:103B7000FFF71EFF06B0BDE8F087A4F580556B780F
:103B8000022BD0D1DFF84C82AB788F4E08F10407BE
:103B9000072BEFD801A252F823F000BF253C000804
:103BA0000F3E0008613B0008193C0008573C000824
:103BB0002B3D00083F3D0008133C000806F58178C6
:103BC00005EB0813DFF810929988002940F0068170
:103BD0007E49D9F8603001EB4621002B00F00981C5
:103BE000DF687B4A41F2180305EB0616F058002304
:103BF000B847002800F0FD80022891D1D4F89C300D
:103C000005EB0818013B0122C4F89C3088F8062017
:103C100086E703236B70ADE794F87031002BA9D0D1
:103C2000694898E7002305A9092218460391FCF783
:103C30003DFD01289ED1059B93F8FE21552A04D114
:103C400093F8FF21AA2A00F020810222012384F8A0
:103C5000B4216B708EE72B78287D032B0CBF4FF0BF
:103C600080094FF480794FF0010A002800F0898024
:103C70000128FAD16968D4F81032D4F80822580221
:103C800002324FF0FF33B3FBF0F3CB184FF00001DB
:103C90004941934271F1000100D21A46394602208F
:103CA000FCF74AFE032800F27B8101A353F820F0C1
:103CB000753B0008573D0008753B0008573D00085C
:103CC0002B690622652BAA7039D92A78032A0CBFE2
:103CD0006FF07F026FF0FF02A3F1650303EA0203B6
:103CE00003F101030CBF80224FF480729A422B61D2
:103CF00025D2EA68D4F8081298180231884207D30E
:103D000094F8B41111B9012184F8B411012169703A
:103D1000C5E90120C4F89421D4F8102202FB03F372
:103D20005B02C4E95E330523AB70AA6841460120FB
:103D3000FEF72CFE012840F0C1800623AB70002165
:103D40003046FCF795FE012840F0B880AB7801338F
:103D5000DBB2AB701CE7D5E901C32A69A3EB0C0108
:103D6000914288BFC5E903C10328A9D00133B3FB41
:103D7000F9F209FB12320AB14B449B1A00206B6026
:103D80002875D4F8082241460232FCF7D5FD0328F5
:103D900000F2068101A353F820F000BF753B000834
:103DA0007F3E0008753B0008C13C0008C42E00207F
:103DB0007C300020682F0020AC2F0020F02F002046
:103DC000CD0D00088C54000834300020DC1E00208B
:103DD000E5050008C81E002098100020D9F86030C2
:103DE0004BB19A6841F2180005EB0613185890473A
:103DF000EEE6D4F89C7005EB08180323013F88F821
:103E000006300123C4F89C7084F8A03088E605A928
:103E1000D4F8FC0100230922FCF748FC01287FF4B8
:103E2000A9AE002305982B70B0F80B30B3F5007FD6
:103E30001FD1067C022E1CD190F8FE31552B18D1D3
:103E400090F8FF31AA2B14D1B0F80EE0D4F8FC3171
:103E50000EEB0307C4F8007290F80DC0C4F810C24E
:103E60000CF1FF337F2B04D8CCF100033CEA0303B1
:103E70002CD00322012384F8B4216B707AE66B689E
:103E800085F814A00133AB60EFE6039903F5DF7208
:103E900003F5FF73906840B11679A6F10B07012F67
:103EA00006F0F70605D9062E03D010329342F1D161
:103EB000CBE60123C4F8FC01AB70A9E702287FF42C
:103EC00059AE012384F8B4316B7053E64FEA4C23AA
:103ED000013BC4F81832C18A01B9416AC4F804121E
:103EE000B0F81120520102F2FF125312C4F820322E
:103EF000B0F8132002B9026A9E440EEB410EA2EB09
:103F00000E02B2FBFCF240F6F47C62454FEA41013E
:103F1000C4F8082241D94FF6F47C62453B4423D9CA
:103F200003260B442E7094F8E011C76AC4F81C7283
:103F3000C4F80C32A1B91B48442201F063FA4FF6D1
:103F4000FF73A4F8D23184F8D0611023154884F8A7
:103F5000B8610021C4F8DC7184F8D131FEF7C4FCEB
:103F6000AB780133AB7005E6194494F8E071C4F8FE
:103F70000C1202232B700023C4F81C32002FEFD147
:103F800008484422394601F03DFA4FF6FF73A4F881
:103F9000D231032384F8D031D7E701232B7068E7AF
:103FA000287D62E67C3000202DE9F04F83B0834607
:103FB0008A4601924FF000099BF81820D30733D5A9
:103FC0009BF8287087BBDBE9016296424AD2019BCD
:103FD000921BA3EB0905954228BF1546C6F30806B8
:103FE000002D3CD0D046C6F50074AC42584628BFE0
:103FF0002C46FCF7E9FD0346991940462246A044A9
:1040000000264BB301F0F0F921465846FDF730F891
:104010002744F8B99BF82820E2B9CBE90B24022108
:104020008BF82810B944BA44019B4B451AD9DBE9F7
:104030000112914216D20D4B1A6E002ABCD01269A1
:1040400090470028B8D0FFF73BFD9BF81820D30716
:10405000EAD5B5E72D1BC6D1B944BA44E4E7019BC4
:104060009945E8D3484603B0BDE8F08F981000208A
:10407000C1B130B50546C1B00C4601E0241A0ED0DE
:10408000B4F5807F2246694628BF4FF480722846E7
:10409000FFF78AFFFF28F1D8002041B030BD012092
:1040A00041B030BD0120704770B50B4D04460E463F
:1040B00094F828202B6E42B1002BFCD01B69984746
:1040C0000028F5D0FFF7FCFCF2E731462046BDE8BA
:1040D0007040FEF709BC00BF981000202DE9F04F9A
:1040E000A64E96F8D08287B00746B8F1000F13D0DD
:1040F000A34BA449A44CDFF8B082002818BF19468E
:104100006378032B08F1040500F0AF804FF000083E
:10411000404607B0BDE8F08F9C4C9D4DAC4203D3A8
:104120000BE00C34AC4208D22379022BF9D1A07AEF
:104130000C34FFF71BFAAC42F6D3934C954B002599
:1041400004F5805903F1700235651B6F326698479C
:104150000223A57099F8B4516370C9F81432294646
:10416000627899F8B451336E032A0BD0002DCFD169
:1041700033B11B6998470028F1D0FFF7A1FCEEE7A7
:104180001946F1E70029C3D10123DFF81C827D49DC
:1041900086F8D0327A4B08F10405002F18BF194673
:1041A00099F8A43063B199F8E83043B199F82C310B
:1041B000002B00F0CA800021F1668846A8E70123A1
:1041C000442000FB034000F58550734B00932022F0
:1041D00001230430FFF7ECFBD6F86CB0DBF80820C5
:1041E000C8F10163934291D36C4B1A69002A04DA37
:1041F0006B4A5A6002F188325A604046FCF7E4FE8E
:10420000DFF8A8A181465046FCF7DEFEB9F1FF3F7A
:1042100062D0421C60D00021C3B208460393FCF771
:1042200071FE01210846FCF76DFE5C4CB9F10B0FE5
:1042300055D817B9039B4B4545D0FBF7EBFF092831
:104240004FEAC90C14D000210120FCF75BFE884620
:10425000524A1369002143F0004308461361FCF7FA
:1042600051FE0120FCF74EFE52E704F5805997E716
:10427000226922F440722261216941F400712161B6
:10428000216921F0F801216122694CEA020242F021
:1042900002022261226942F480322261FBF7BAFFF6
:1042A000226922F0020222612269092822F0F80222
:1042B0002261C8D1D6F82C21B6F8301150690142DC
:1042C00014BF5183118309F10109AFE7354DA5EB07
:1042D0000A01FFF7CDFE00BB4FF00008B8E7002150
:1042E0000120FCF70FFE0846FCF70CFE0120FCF74E
:1042F00009FE58460421FFF7D7FE0228ECD04FF004
:1043000000094FF42064F06ED0E901239A4209F1CC
:1043100001091CD20FB95545D8D0042205A9F06E69
:10432000FFF742FE05992846FBF7C8FF0928D3D1BD
:10433000B9FBF4F004FB109004350028E3D1FCF73E
:10434000D1FD0120FCF7CEFDDDE7022338E7002197
:10435000FFF7AAFE0228BFD0F06E042205A9FFF7DE
:1043600023FE0428B8D140460599FBF7A7FFA0F12A
:104370000903D3F1000848EB030869E7981000200F
:10438000A854000898540008C41E0020D454000803
:10439000CC56000800000020BD0F0008003C024081
:1043A00023016745000010080080000800000E0887
:1043B0001049114BD1F8882042F4700210B4C1F8B2
:1043C00088201A680D4C002042F001021A609860A3
:1043D0001A6822F0847222F480321A605C601A68D3
:1043E000074C22F480221A60D8608C605DF8044B80
:1043F000704700BF00ED00E000380240103000249C
:1044000000000008704700BF0148FBF7BDBE00BFB9
:10441000940000200148FBF7B7BE00BFE002002077
:104420000148FBF7B1BE00BF2C0500200148FBF797
:10443000ABBE00BF780700200148FBF7A5BE00BF58
:10444000C40900200148FBF79FBE00BF100C0020EC
:1044500001480021FDF776BD0000014008B5054880
:104460000021FDF76FFDBDE8084003480021FDF77E
:1044700069BD00BF000001400040014008B505488B
:104480000021FDF75FFDBDE8084003480021FDF76E
:1044900059BD00BF000001400044014008B5054877
:1044A0000021FDF74FFDBDE8084003480021FDF75E
:1044B00049BD00BF000001400048014000214FF00D
:1044C0008040FDF73FBD00BF01480021FDF73ABD28
:1044D0000004004001480021FDF734BD0008004001
:1044E00001480021FDF72EBD000C004001480021CD
:1044F000FDF728BD0004014008B505480021FDF77F
:1045000021FDBDE8084003480021FDF71BBD00BFA9
:10451000000401400018004008B505480021FDF7DF
:1045200011FDBDE8084003480021FDF70BBD00BFA9
:1045300000040140001C004008B505480021FDF7BB
:1045400001FDBDE8084003480021FDF7FBBC00BFAA
:1045500000040140002000400348D0F8643E13B13D
:1045600000F6586018477047000000200348D0F854
:10457000843E13B100F678601847704700000020B1
:104580000348D0F8A43E13B100F69860184770476E
:10459000000000200348D0F8C43E13B100F6B86014
:1045A00018477047000000200348D0F8E43E13B1DC
:1045B00000F6D86018477047000000200348D0F884
:1045C000043F13B100F6F860184770470000002060
:1045D0000348D0F8243F13B100F61870184770470D
:1045E000000000200348D0F8443F13B100F63870B3
:1045F00018477047000000200348D0F8643F13B10B
:1046000000F6587018477047000000200348D0F8A3
:10461000843F13B100F678701847704700000020FF
:104620000348D0F8A43F13B100F6987018477047BC
:10463000000000200348D0F8C43F13B100F6B87062
:1046400018477047000000200348D0F8E43F13B13A
:1046500000F6D870184770470000002002484368F1
:104660000BB1083818477047001000200248436A11
:104670000BB1183018477047001000200248436CF7
:104680000BB138301847704700100020704700BF4A
:10469000704700BF704700BF10B5124C94F8DE326F
:1046A00023B9114B4FF480225A6110BD4FF0E02224
:1046B000D2F8103D23F00603C2F8103DFFF778FE54
:1046C00094F8DE32002BECD0D4F8E4329B68DB07A0
:1046D000E7D5D4F8E023136823F0030161F307035F
:1046E0001360DEE798100020003C01402DE9F04FF8
:1046F000B24CD4F8E0325A69D2078BB002D50BB075
:10470000BDE8F08F5A699B6912EA0309F7D0C9F333
:10471000074319F4002F009340F0E280009B5907F3
:1047200043D419F0020F5FFA89F603D0D4F8E032CF
:1047300002225A61B9F1000FC0F2EA8119F4006F48
:10474000C9F3072540F04881330708D59C4B9D48A5
:1047500053F8943C9847D4F8E03208225A61F7069F
:1047600000F1C081EE0600F16D81A90600F1E9803B
:10477000009BDA0609D5924B924853F8843C98473F
:10478000D4F8E0324FF480125A61009B9B06B6D5F4
:104790008B4B8C4853F8803C9847D4F8E0324FF468
:1047A00000125A610BB0BDE8F08FD4F8E42293698F
:1047B000D26913401FFA83FABAF1000FB1D0DFF8C3
:1047C0001482CDF80C900023A8F118051F461AF0AA
:1047D000010F78D0FEB2D4F8E42204EB860310690E
:1047E000D3F8EC12536B8968F340DB01DBB203436F
:1047F0000B4013F00109D9B240F0A6810A0740F13D
:10480000C381D8F8002008239360994619F0800FDF
:1048100059D0D5E94CC0D5F82431D8F800E0ACEB3C
:1048200000018B42DEF8182028BF0B4692B20333FA
:10483000B2EB930F47D9D4F8E42294F8D7923236EA
:1048400004EB8603CDE90178674698469446874293
:1048500037D9D5F82431391A994228BF194601F1C0
:10486000030BD5F828314FEA9B0BB9F1000F10D19B
:104870008AB203329210D8F8DC620AD0484601307E
:1048800053F8047B37608242F9D1D5E94C70D5F8F2
:10489000283108440B44B842C5F82831C5F8340122
:1048A000DEF818300AD195F81C11012202FA01F144
:1048B000DCF8342022EA0102CCF834209BB29B457C
:1048C000C5D3DDE901785FEA5A0A07F1010708F16B
:1048D000040805F128057FF47AAFDDF80C9020E795
:1048E000D4F8E4329D69DB691D402D0C3FF416AF0E
:1048F00004F53578DFF8C8B004F54A760027C246DB
:1049000008E06D0807F1010706F1040608F1280820
:104910003FF404AFEB07F4D5F9B204EB8103D4F80C
:10492000E422D3F828339B6852691340D807DAB2DF
:1049300000F13A81930740F16281336802229A6064
:10494000DFE7D4F8E432D4F8EC129A680868C2F3CE
:104950004102022A06BF032262F30A006FF30A0033
:1049600008605A6842F480725A6006A8FBF710FD8E
:10497000D4E9B821D368079D6FF38D23D36088688D
:104980001149C0F34100014491F82410032900F0BB
:104990005C810E490E480126294484F8D662814282
:1049A0004FF04006A4F8D86200F2A9810E2161F30D
:1049B0008D234FF40051D3605161D9E69810002047
:1049C000F81000206C1300203C540008401E1BFF10
:1049D0003F420F008413002000238DF8133094F819
:1049E000E6338DF81330B54BB54853F88C3C9847F7
:1049F000D4F8E432D4F8E022986894F8DE324FF428
:104A000000615161002B3FF49FAEC2077FF59CAE61
:104A100094F8E933012B7FF497AE9DF81330032B04
:104A20007FF492AED4F8E033A6491A6842F001024E
:104A30001A601A6842F003021A600B6943F0060319
:104A40000B6181E6D4E9B8167368002723F00103EF
:104A500073600597059B43F020030593059B67F35F
:104A60008A130593059B0B610B690593BC46964B16
:104A700003E00A690592013B02D0059A9006F8D43A
:104A800094F8D52252B1914B03EB820EFF2253F8DA
:104A9000040F8260D86B73458260F8D10B2363F3F7
:104AA000070763F3070C4FF0FF33B3614FF00113B7
:104AB000F3617761C6F810C0336885486FF30A1355
:104AC000336094F8D722D4F82833012A186100F013
:104AD000B5804FF480534B61784B794853F8903C44
:104AE000984742E6D4F8E0329A6922F010029A61BF
:104AF0001A6AC2F34340022802F00F0100F0B080AE
:104B0000062800F087809A6942F010029A6129E62F
:104B100094F8DE323BB1D4F8E023136823F00301AC
:104B200061F307031360D4F8E422644B644853F83C
:104B3000881C536823F0010353608847D4F8E0329F
:104B40004FF000425A61F9E5516BD8F800005B4B19
:104B50004FF0010C0CFA07FC21EA0C015163012211
:104B600053F89C3C826031465548984794F8D732B8
:104B7000012B00F0B18019F0020F3FF447AED8F8D6
:104B8000003002229A609EE6CB0604D5D8F80030A9
:104B900010229A6097E6480658BF8946EBD5D8F8A8
:104BA000003040229A608EE694F8D72233680120C4
:104BB0008242986007D11A69D8F87C33C2F3120296
:104BC0009B1AC8F88C335BF8A03C5046984794F881
:104BD000D732012B7FF495AE002F7FF492AE94F87C
:104BE000E533052B7FF48DAED4F82833384A1A61AB
:104BF000384A5A611A684FF080221A6081E610071D
:104C00007FF57FAE5BF8983C5046984733680822A2
:104C10009A6076E601EB810104EBC101D4F8A4634C
:104C2000D1F86006C2F30A1202443068C4F8A00842
:104C30003068C4F8A408C1F8602664E7254A5A61C0
:104C40001A684FF080221A6043E7002184F8D612D8
:104C50004FF40071A4F8D812092161F38D23A8E65E
:104C600047F6F07010423FF44EAFC2F30A1201EB68
:104C7000810004EBC00002F1030C5FEAAC0CD0F839
:104C80005466D4F8A4E34FEA810818BF002006D088
:104C90000130DEF8007046F8047B8445F8D14144C9
:104CA00004EBC101D1F854061044C1F85406D1F800
:104CB00060060244C1F8602625E700BFF810002016
:104CC0006C13002000ED00E0400D03008013002075
:104CD0001800086038190020002F7FF44CAF94F8BA
:104CE000E533042B7FF447AFD4F828332B4A1A61FD
:104CF0002B4A5A611A684FF080221A603BE7294814
:104D0000A5F57401A1F51051814203D80D2161F37D
:104D10008D234EE6244925482944814203D20C21A3
:104D200061F38D2345E62248A5F18C71A1F543413D
:104D3000814203D80B2161F38D233AE61D491E48B9
:104D40002944814203D20A2161F38D2331E61B49B4
:104D50001B482944814203D2092161F38D2328E6AF
:104D60001848A5F1B771A1F55851814203D2082125
:104D700061F38D231DE6144914482944814203D26E
:104D8000072161F38D2314E6114912482944814219
:104D900034BF0621052161F38D230AE6180008605F
:104DA00038190020DFC810002013FBFE20D61300A6
:104DB000FF69180000D3CEFE40771B00C05BB3FE36
:104DC000C091210040AC2700C01D6AFE40E13300C5
:104DD000803C36FEE09C41001B4B1C48196C1C4A71
:104DE00010B441F080510124196404625321FF245E
:104DF000CA205462506251625B6FDB0085B013D4ED
:104E00000023144902930291029A13480432029239
:104E1000029A136003930391039B0393039B18600F
:104E200005B05DF8044B70470A4B002201920193D4
:104E3000019B0193019A084B12689A42E0D105B098
:104E40005DF8044B704700BF0038024000000E427E
:104E5000002800405028004076614E6900B583B0BC
:104E60000D49002200920091009B04330093009BA7
:104E70001B68012B02D003B05DF804FB0192019185
:104E8000019B064904330193019B1A600B6883F36D
:104E900008884B689847FEE7502800400000FF1F35
:104EA00010B4EFF31182102383F31288084BD96DED
:104EB0004FF0E0200131D9658169996600245C6674
:104EC0000369D3B283F311885DF8044B704700BFC8
:104ED00098100020430803F05533C01A830803F0EC
:104EE000333300F03330184400EB101000F00F3073
:104EF00000EB002000EB0040000E70471C48016BE7
:104F000041F480110163BFF34F8FFFF765FFFFF797
:104F1000A5FF002103E0174B5B58435004311648AE
:104F2000164B42189A42F6D3154A02E0002342F883
:104F3000043B144B9A42F9D3134A02E0002342F88F
:104F4000043B124B9A42F9D3114A03E05FF0A533B8
:104F500042F8043B0F4B9A42F8D30F48016841F4E2
:104F600070010160FFF724FA00F01AF87047FEE7BD
:104F700000380240CC5600080000002098100020A5
:104F800098100020E8300020000000100000001001
:104F9000F8E70010F8FF001088ED00E0FEE70000E1
:104FA0002DE9F04389B00023104A0193029313685E
:104FB00043F48033136003E0019BB3F5A04F09D0A5
:104FC000136803F400330293019B01330193029BA6
:104FD000002BF1D0054B1B6813F4003318BF0123DD
:104FE0000293029D012D03D000BFFDE7003802406F
:104FF000B04BB1491A6CB14842F080521A640A6849
:1050000042F440420A609A689A609A6842F4004208
:105010009A609A6842F4A0529A6058601A6842F006
:1050200080721A601A689101FCD5A54A40F2057198
:105030001160996821F003019960996841F00201BB
:10504000A2F580629960936803F00C03082BFAD1F3
:10505000936803F00C03042B00F02781082B00F069
:105060006C81984C984B44F8743C924B54F8741CE7
:105070009A68964E9648C2F3031222444FF00008F5
:1050800012F8702CD140934A44F8741CF260924A92
:10509000596FB2605A6B22F080025A635A6F42F025
:1050A00080725A67196B8D4A0A431A635A6B5A63A6
:1050B0009A6B9A631A6C8A490A431A64596C894A32
:1050C0000A435A6404A948F2FF73CDE904384FF645
:1050D000FF77FBF713F900F580600497FBF70EF9F3
:1050E00000F580600497FBF709F900F58060FBF795
:1050F00005F900F58060FBF701F900F58060FBF72A
:10510000FDF800F58060FBF7F9F800F58060FBF72B
:10511000F5F800F58060FBF7F1F80846FBF738F981
:10512000D6F8FC10704B7148049A714F41F08071B1
:10513000C6F8FC10C3F8B00FC3F80480196841F03A
:105140000101196054F8743C4FF47A71B3FBF1F328
:10515000013BB3F1807F6749B2FBF1F2BA6509D236
:105160004FF0E0225361F02386F823300723C2F882
:105170001880136162B6DFF890C1554C5E49DFF8C4
:105180008CE101263CF8020B002340FA03F2D2071F
:1051900004D506FA03F20C608A800C310133102B1F
:1051A000F3D104F580647445ECD100210846FBF787
:1051B000A9FE0120DFF85891FBF7A4FE0446C8467B
:1051C00040F2162658F8041B91B10B680D7203F1DA
:1051D0003F4303F57E0309EB9323CE80187BFCF756
:1051E000B1F88B88CDE90434086804A9FBF786F888
:1051F0000135042DE6D100210846FBF783FE01208E
:10520000FBF780FE0846FBF77DFE0120FBF77AFEE8
:105210004FF00A08D7F82C31B7F8302159690A4203
:1052200014BF5A831A83D7F82031B7F8242159695B
:105230000A4214BF5A831A83C826FBF775FE044638
:105240000D46FBF771FE031B61EB0501B3F57A7F99
:1052500071F10003F5D3013EEFD1B8F10108D9D1C6
:10526000264CCDF80C800394039B04330393039BDB
:105270001868C31E012B4DD9214C2368013378D007
:105280000F490C4B0A6822F480720A6000251A6AE2
:105290001D625A6A5D6272B6236883F30888636888
:1052A0009847284609B0BDE8F083064C154B44F8F2
:1052B000743CDAE6003802400070004008544007B1
:1052C000003C0240F81000200024F40000ED00E053
:1052D000000002400003FA0500000008FF9167008B
:1052E000FFC9FE1033570700001000E055CEACC5D3
:1052F0009810002040420F001C1100205028004050
:105300000080000800127A00545400080010024087
:105310003C540008033818BF0120FEF7DFFECDF82B
:1053200010800494049B2B4C043304930028049BAA
:1053300014BF052206221A60A2E753685168264C62
:1053400013F4800F01F03F01536814BF234A244A2D
:10535000B2FBF1F1234A5268C2F30142C3F388134E
:10536000013201FB03F35200B3FBF2F344F8743C47
:105370007BE60120FEF7B2FE002881D14146FBF713
:10538000C1FD0120FBF7BEFDD7F82C31B7F8302165
:1053900059690A4214BF5A831A83D7F82031B7F8E3
:1053A000242159690A4214BF5A831A834FF4FA66BA
:1053B000FBF7BAFD04460D46FBF7B6FD031B61EB98
:1053C0000502B3F57A7F72F10003F5D3013EEFD108
:1053D000DAE700BF00800008F810002000127A0011
:1053E0000024F400003802400A44914200F1FF33E7
:1053F00000D1704710B511F8014B03F8014F9142ED
:10540000F9D110BD02440346934200D1704703F81E
:10541000011BF9E710B57AB103460139841813F876
:10542000010B11F8012F904201D1A34201D1801A42
:1054300010BD0028F3D1FAE71046F9E7C4110020A7
:10544000B811002000000000808182838485000064
:1054500000000000FFFFFFFFFFFF040000102030EE
:1054600003020102380000002800000008000000CC
:1054700000000000000000003800000030000000C4
:1054800010000000080000000000000046524545E2
:10549000535041432E4500006669726D7761726515
:1054A0002E757074000000006669726D7761726518
:1054B0002E62616B00000000F90308007C190020D7
:1054C000741900200000000000000000000000002F
:1054D00000000000841900200201000004001400F4
:1054E000A41900200202000004001400C4190020C6
:1054F0000207000004001400E41900200208000064
:1055000004001400041A0020020900000400140022
:10551000241A0020010B000000007700441A00202C
:10552000010C000000007600641A00200111000048
:1055300000007600841A00200110000000007600B0
:10554000A41A0020010D010000007700C41A0020F9
:105550000112000000007600E41A0020011400008F
:1055600000001E00041B0020011A000000000D00B6
:10557000241B0020011B000000002C00441B002005
:105580000115000000000C00641B00200116000043
:1055900000000C00841B0020011C000000000E0015
:1055A000A41B0020011D000000001E00C41B0020E1
:1055B0000117000000000C00E41B0020011800008F
:1055C00000000E00041C00200119000000000C0067
:1055D000241C0020011F000000000C00441C0020BF
:1055E0000120000000000C00641C002001290100C3
:1055F00000001800841C0020012100000000480069
:10560000A41C00200122000000004900C41C00204E
:105610000123000000004A00E41C002001240000D7
:1056200000004B00041D00200125000000004C007C
:10563000241D00200126000000004D00441D002014
:105640000127000000004E00641D0020012800001A
:1056500000004F00841D0020012C000000002900E4
:10566000A41D0020012D010000002900C41D002000
:10567000012E010000007000E41D0020012F010038
:1056800000005200041E002001300100000028002C
:10569000241E00200131010000002800441E0020CB
:1056A000022A050000012C00641E002002350400BF
:1056B00000023E00841E00200134000000003C0077
:1056C000A41E0020013700000000200000000000A0
:1056D0000102030401020304060708090030014027
:1056E000001517164C050000785400080000000053
:1056F00000380040002D33326E050000645400086D
:1057000000000000003C0040002325246F0600003C
:1057100064540008000000000000000000000000C9
:105720000000000000000000000000001000040065
:10573000400001008000070000000000B5350008AF
:10574000211A0008A5190008F51800088D1A00088C
:105750000905000851050008650500080010014012
:105760000000000000000000000000000000000039
:105770000000000000000000000000000000000029
:105780000000000000000000000000000000000019
:1057900000000000000000001A19000000000000D6
:1057A00000000000000000000000000000000000F9
:1057B00000000000000000000000000000000000E9
:1057C00000000000000000000000000000000000D9
:1057D00000000000000000000000000000000000C9
:1057E00000000000000000000000000000000000B9
:1057F00000000000000000000000000000000000A9
:105800000000000000000000000000000000000098
:105810000000000000000000000000000000000088
:105820000000000000000000000000000000000078
:105830000000000000000000000000000000000068
:105840000000000000000000000000000000000058
:105850000000000000000000000000000000000048
:105860000000000000000000000000000000000038
:105870000000000000000000000000000000000028
:105880000000000000000000000000000000000018
:105890000000000000000000000000000000000008
:1058A00000000000000000000000000000000000F8
:1058B00000000000000000000000000000000000E8
:1058C00000000000000000000000000000000000D8
:1058D00000000000000000000000000000000000C8
:1058E00000000000000000000000000000000000B8
:1058F00000000000000000000000000000000000A8
:105900000000000000000000000000000000000097
:105910000000000000000000000000000000000087
:105920000000000000000000000000000000000077
:105930000000000000000000000000000000000067
:105940000000000000000000000000000000000057
:105950000000000000000000000000000000000047
:105960000000000000000000000000000000000037
:105970000000000000000000000000000000000027
:105980000000000000000000000000000000000017
:105990000000000000000000000000000000000007
:1059A00044000725050000000044004000000000FE
:1059B00000000000000000000000000000000000E7
:1059C00000000000000000000000000000000000D7
:1059D00000000000000000000000000000000000C7
:1059E0000000000013120000000000000000000092
:1059F00000000000000000000000000000000000A7
:105A00000000000000000000000000000000000096
:105A10000000000000000000000000000000000086
:105A20000000000000000000000000000000000076
:105A30000000000000000000000000000000000066
:105A40000000000000000000000000000000000056
:105A50000000000000000000000000000000000046
:105A60000000000000000000000000000000000036
:105A70000000000000000000000000000000000026
:105A80000000000000000000000000000000000016
:105A90000000000000000000000000000000000006
:105AA00000000000000000000000000000000000F6
:105AB00000000000000000000000000000000000E6
:105AC00000000000000000000000000000000000D6
:105AD00000000000000000000000000000000000C6
